{
  "abi": [
    {
      "type": "receive",
      "stateMutability": "payable"
    },
    {
      "type": "function",
      "name": "bonusPercent",
      "inputs": [],
      "outputs": [
        {
          "name": "",
          "type": "uint256",
          "internalType": "uint256"
        }
      ],
      "stateMutability": "view"
    },
    {
      "type": "function",
      "name": "claimRewards",
      "inputs": [
        {
          "name": "_index",
          "type": "uint256",
          "internalType": "uint256"
        }
      ],
      "outputs": [],
      "stateMutability": "nonpayable"
    },
    {
      "type": "function",
      "name": "durationPeriods",
      "inputs": [
        {
          "name": "",
          "type": "uint8",
          "internalType": "enum StakingBridge.StakingDuration"
        }
      ],
      "outputs": [
        {
          "name": "",
          "type": "uint256",
          "internalType": "uint256"
        }
      ],
      "stateMutability": "view"
    },
    {
      "type": "function",
      "name": "estimateFeeForCrossChain",
      "inputs": [
        {
          "name": "_destinationChainSelector",
          "type": "uint64",
          "internalType": "uint64"
        },
        {
          "name": "_receiver",
          "type": "address",
          "internalType": "address"
        },
        {
          "name": "_token",
          "type": "address",
          "internalType": "address"
        },
        {
          "name": "_amount",
          "type": "uint256",
          "internalType": "uint256"
        }
      ],
      "outputs": [
        {
          "name": "",
          "type": "uint256",
          "internalType": "uint256"
        }
      ],
      "stateMutability": "view"
    },
    {
      "type": "function",
      "name": "getUserStakes",
      "inputs": [
        {
          "name": "_user",
          "type": "address",
          "internalType": "address"
        }
      ],
      "outputs": [
        {
          "name": "",
          "type": "tuple[]",
          "internalType": "struct StakingBridge.Stake[]",
          "components": [
            {
              "name": "user",
              "type": "address",
              "internalType": "address"
            },
            {
              "name": "token",
              "type": "address",
              "internalType": "address"
            },
            {
              "name": "amount",
              "type": "uint256",
              "internalType": "uint256"
            },
            {
              "name": "startTime",
              "type": "uint256",
              "internalType": "uint256"
            },
            {
              "name": "duration",
              "type": "uint8",
              "internalType": "enum StakingBridge.StakingDuration"
            },
            {
              "name": "claimed",
              "type": "bool",
              "internalType": "bool"
            },
            {
              "name": "rewardsClaimed",
              "type": "bool",
              "internalType": "bool"
            },
            {
              "name": "allowedToClaimRewards",
              "type": "bool",
              "internalType": "bool"
            }
          ]
        }
      ],
      "stateMutability": "view"
    },
    {
      "type": "function",
      "name": "initialize",
      "inputs": [
        {
          "name": "_treasury",
          "type": "address",
          "internalType": "address"
        },
        {
          "name": "_router",
          "type": "address",
          "internalType": "address"
        }
      ],
      "outputs": [],
      "stateMutability": "nonpayable"
    },
    {
      "type": "function",
      "name": "owner",
      "inputs": [],
      "outputs": [
        {
          "name": "",
          "type": "address",
          "internalType": "address"
        }
      ],
      "stateMutability": "view"
    },
    {
      "type": "function",
      "name": "penaltyPercent",
      "inputs": [],
      "outputs": [
        {
          "name": "",
          "type": "uint256",
          "internalType": "uint256"
        }
      ],
      "stateMutability": "view"
    },
    {
      "type": "function",
      "name": "processMaturedStakes",
      "inputs": [
        {
          "name": "users",
          "type": "address[]",
          "internalType": "address[]"
        },
        {
          "name": "stakeIndexes",
          "type": "uint256[][]",
          "internalType": "uint256[][]"
        }
      ],
      "outputs": [],
      "stateMutability": "nonpayable"
    },
    {
      "type": "function",
      "name": "renounceOwnership",
      "inputs": [],
      "outputs": [],
      "stateMutability": "nonpayable"
    },
    {
      "type": "function",
      "name": "setBonusPercent",
      "inputs": [
        {
          "name": "_newPercent",
          "type": "uint256",
          "internalType": "uint256"
        }
      ],
      "outputs": [],
      "stateMutability": "nonpayable"
    },
    {
      "type": "function",
      "name": "setPenaltyPercent",
      "inputs": [
        {
          "name": "_newPercent",
          "type": "uint256",
          "internalType": "uint256"
        }
      ],
      "outputs": [],
      "stateMutability": "nonpayable"
    },
    {
      "type": "function",
      "name": "setTreasury",
      "inputs": [
        {
          "name": "_newTreasury",
          "type": "address",
          "internalType": "address"
        }
      ],
      "outputs": [],
      "stateMutability": "nonpayable"
    },
    {
      "type": "function",
      "name": "stakeERC20",
      "inputs": [
        {
          "name": "_token",
          "type": "address",
          "internalType": "address"
        },
        {
          "name": "_amount",
          "type": "uint256",
          "internalType": "uint256"
        },
        {
          "name": "_duration",
          "type": "uint8",
          "internalType": "enum StakingBridge.StakingDuration"
        }
      ],
      "outputs": [],
      "stateMutability": "nonpayable"
    },
    {
      "type": "function",
      "name": "stakeETH",
      "inputs": [
        {
          "name": "_duration",
          "type": "uint8",
          "internalType": "enum StakingBridge.StakingDuration"
        }
      ],
      "outputs": [],
      "stateMutability": "payable"
    },
    {
      "type": "function",
      "name": "stakes",
      "inputs": [
        {
          "name": "",
          "type": "address",
          "internalType": "address"
        },
        {
          "name": "",
          "type": "uint256",
          "internalType": "uint256"
        }
      ],
      "outputs": [
        {
          "name": "user",
          "type": "address",
          "internalType": "address"
        },
        {
          "name": "token",
          "type": "address",
          "internalType": "address"
        },
        {
          "name": "amount",
          "type": "uint256",
          "internalType": "uint256"
        },
        {
          "name": "startTime",
          "type": "uint256",
          "internalType": "uint256"
        },
        {
          "name": "duration",
          "type": "uint8",
          "internalType": "enum StakingBridge.StakingDuration"
        },
        {
          "name": "claimed",
          "type": "bool",
          "internalType": "bool"
        },
        {
          "name": "rewardsClaimed",
          "type": "bool",
          "internalType": "bool"
        },
        {
          "name": "allowedToClaimRewards",
          "type": "bool",
          "internalType": "bool"
        }
      ],
      "stateMutability": "view"
    },
    {
      "type": "function",
      "name": "transferOwnership",
      "inputs": [
        {
          "name": "newOwner",
          "type": "address",
          "internalType": "address"
        }
      ],
      "outputs": [],
      "stateMutability": "nonpayable"
    },
    {
      "type": "function",
      "name": "transferTokenCrossChain",
      "inputs": [
        {
          "name": "_destinationChainSelector",
          "type": "uint64",
          "internalType": "uint64"
        },
        {
          "name": "_receiver",
          "type": "address",
          "internalType": "address"
        },
        {
          "name": "_token",
          "type": "address",
          "internalType": "address"
        },
        {
          "name": "_amount",
          "type": "uint256",
          "internalType": "uint256"
        }
      ],
      "outputs": [
        {
          "name": "messageId",
          "type": "bytes32",
          "internalType": "bytes32"
        }
      ],
      "stateMutability": "payable"
    },
    {
      "type": "function",
      "name": "treasury",
      "inputs": [],
      "outputs": [
        {
          "name": "",
          "type": "address",
          "internalType": "address"
        }
      ],
      "stateMutability": "view"
    },
    {
      "type": "function",
      "name": "unstakeManually",
      "inputs": [
        {
          "name": "_index",
          "type": "uint256",
          "internalType": "uint256"
        }
      ],
      "outputs": [],
      "stateMutability": "nonpayable"
    },
    {
      "type": "event",
      "name": "BonusPercentUpdated",
      "inputs": [
        {
          "name": "newPercent",
          "type": "uint256",
          "indexed": false,
          "internalType": "uint256"
        }
      ],
      "anonymous": false
    },
    {
      "type": "event",
      "name": "ClaimedRewards",
      "inputs": [
        {
          "name": "stakeId",
          "type": "uint256",
          "indexed": true,
          "internalType": "uint256"
        },
        {
          "name": "user",
          "type": "address",
          "indexed": true,
          "internalType": "address"
        },
        {
          "name": "token",
          "type": "address",
          "indexed": true,
          "internalType": "address"
        },
        {
          "name": "amount",
          "type": "uint256",
          "indexed": false,
          "internalType": "uint256"
        }
      ],
      "anonymous": false
    },
    {
      "type": "event",
      "name": "Initialized",
      "inputs": [
        {
          "name": "version",
          "type": "uint64",
          "indexed": false,
          "internalType": "uint64"
        }
      ],
      "anonymous": false
    },
    {
      "type": "event",
      "name": "OwnershipTransferred",
      "inputs": [
        {
          "name": "previousOwner",
          "type": "address",
          "indexed": true,
          "internalType": "address"
        },
        {
          "name": "newOwner",
          "type": "address",
          "indexed": true,
          "internalType": "address"
        }
      ],
      "anonymous": false
    },
    {
      "type": "event",
      "name": "PenaltyPercentUpdated",
      "inputs": [
        {
          "name": "newPercent",
          "type": "uint256",
          "indexed": false,
          "internalType": "uint256"
        }
      ],
      "anonymous": false
    },
    {
      "type": "event",
      "name": "Staked",
      "inputs": [
        {
          "name": "stakeId",
          "type": "uint256",
          "indexed": true,
          "internalType": "uint256"
        },
        {
          "name": "user",
          "type": "address",
          "indexed": true,
          "internalType": "address"
        },
        {
          "name": "token",
          "type": "address",
          "indexed": true,
          "internalType": "address"
        },
        {
          "name": "amount",
          "type": "uint256",
          "indexed": false,
          "internalType": "uint256"
        },
        {
          "name": "duration",
          "type": "uint256",
          "indexed": false,
          "internalType": "uint256"
        }
      ],
      "anonymous": false
    },
    {
      "type": "event",
      "name": "TokensTransferredCrossChain",
      "inputs": [
        {
          "name": "messageId",
          "type": "bytes32",
          "indexed": false,
          "internalType": "bytes32"
        },
        {
          "name": "destinationChainSelector",
          "type": "uint64",
          "indexed": false,
          "internalType": "uint64"
        },
        {
          "name": "receiver",
          "type": "address",
          "indexed": false,
          "internalType": "address"
        },
        {
          "name": "token",
          "type": "address",
          "indexed": false,
          "internalType": "address"
        },
        {
          "name": "amount",
          "type": "uint256",
          "indexed": false,
          "internalType": "uint256"
        },
        {
          "name": "nativeToken",
          "type": "address",
          "indexed": false,
          "internalType": "address"
        },
        {
          "name": "nativeFee",
          "type": "uint256",
          "indexed": false,
          "internalType": "uint256"
        }
      ],
      "anonymous": false
    },
    {
      "type": "event",
      "name": "TreasuryUpdated",
      "inputs": [
        {
          "name": "newTreasury",
          "type": "address",
          "indexed": true,
          "internalType": "address"
        }
      ],
      "anonymous": false
    },
    {
      "type": "event",
      "name": "Unstaked",
      "inputs": [
        {
          "name": "stakeId",
          "type": "uint256",
          "indexed": true,
          "internalType": "uint256"
        },
        {
          "name": "user",
          "type": "address",
          "indexed": true,
          "internalType": "address"
        },
        {
          "name": "token",
          "type": "address",
          "indexed": true,
          "internalType": "address"
        },
        {
          "name": "amount",
          "type": "uint256",
          "indexed": false,
          "internalType": "uint256"
        },
        {
          "name": "early",
          "type": "bool",
          "indexed": false,
          "internalType": "bool"
        }
      ],
      "anonymous": false
    },
    {
      "type": "error",
      "name": "InvalidInitialization",
      "inputs": []
    },
    {
      "type": "error",
      "name": "NotInitializing",
      "inputs": []
    },
    {
      "type": "error",
      "name": "OwnableInvalidOwner",
      "inputs": [
        {
          "name": "owner",
          "type": "address",
          "internalType": "address"
        }
      ]
    },
    {
      "type": "error",
      "name": "OwnableUnauthorizedAccount",
      "inputs": [
        {
          "name": "account",
          "type": "address",
          "internalType": "address"
        }
      ]
    },
    {
      "type": "error",
      "name": "ReentrancyGuardReentrantCall",
      "inputs": []
    },
    {
      "type": "error",
      "name": "SafeERC20FailedOperation",
      "inputs": [
        {
          "name": "token",
          "type": "address",
          "internalType": "address"
        }
      ]
    }
  ],
  "bytecode": {
    "object": "0x60808060405234601557612854908161001a8239f35b5f80fdfe6080604052600436101561001a575b3615610018575f80fd5b005b5f3560e01c806305aafc7f14611aff5780630962ef791461190d5780630bbeee09146118be578063161ba46a146118845780632cac0653146114ea578063485cc9551461116e578063584b62a11461106957806361d027b31461101857806362bd689c14610f47578063671aaabd14610e89578063715018a614610daf57806371c263b214610cdf578063842e298114610aaa5780638a8f9b531461093e5780638da5cb5b146108ce578063becf3add14610893578063ca3bfacf14610569578063f0f4426014610460578063f2fde38b146104195763f3401e5c0361000e5761010336611d0c565b6101108183859695612546565b73ffffffffffffffffffffffffffffffffffffffff6002541694602060405180977f20487ded0000000000000000000000000000000000000000000000000000000082528180610164878b600484016121bd565b03915afa95861561033a575f966103e5575b503486116103875773ffffffffffffffffffffffffffffffffffffffff6102019416916101a5843033866126d9565b6002546040517f095ea7b300000000000000000000000000000000000000000000000000000000815273ffffffffffffffffffffffffffffffffffffffff90911660048201526024810185905294602090869081906044820190565b03815f875af194851561033a578795610345575b5061026c60209173ffffffffffffffffffffffffffffffffffffffff6002541690604051998a809481937f96f4e9f90000000000000000000000000000000000000000000000000000000083528c600484016121bd565b03925af195861561033a575f966102f7575b6020877fb751eb81945d749d72a16f2b22955eb80b58ba1568eff025a7aac2b8c8c7d99960e08989898973ffffffffffffffffffffffffffffffffffffffff8a67ffffffffffffffff604051968a8852168a870152166040850152606084015260808301525f60a083015260c0820152a1604051908152f35b9295509390926020833d602011610332575b8161031660209383611e4d565b8101031261032e5791519490939192909160e061027e565b5f80fd5b3d9150610309565b6040513d5f823e3d90fd5b9094506020813d60201161037f575b8161036160209383611e4d565b8101031261032e575193841515850361032e5786945061026c610215565b3d9150610354565b60646040517f08c379a000000000000000000000000000000000000000000000000000000000815260206004820152601260248201527f4e6f7420656e6f7567682062616c616e636500000000000000000000000000006044820152fd5b9095506020813d602011610411575b8161040160209383611e4d565b8101031261032e5751945f610176565b3d91506103f4565b3461032e5760207ffffffffffffffffffffffffffffffffffffffffffffffffffffffffffffffffc36011261032e57610018610453611c96565b61045b6124cd565b612300565b3461032e5760207ffffffffffffffffffffffffffffffffffffffffffffffffffffffffffffffffc36011261032e5773ffffffffffffffffffffffffffffffffffffffff6104ac611c96565b6104b46124cd565b16801561050b57807fffffffffffffffffffffffff000000000000000000000000000000000000000060055416176005557f7dae230f18360d76a040c81f050aa14eb9d6dc7901b20fc5d855e2a20fe814d15f80a2005b60646040517f08c379a000000000000000000000000000000000000000000000000000000000815260206004820152600f60248201527f496e76616c6964206164647265737300000000000000000000000000000000006044820152fd5b3461032e5760207ffffffffffffffffffffffffffffffffffffffffffffffffffffffffffffffffc36011261032e576105ce6004356105a66123ed565b335f5260046020526105bd60405f2054821061201d565b335f52600460205260405f20611cb9565b5060048101908154906105e760ff8360081c1615612115565b6002810154926105fa60ff859416611c21565b54610609816003850154612095565b421094851561083757606461061f5f5483612082565b049081810390811161077a5780956001860173ffffffffffffffffffffffffffffffffffffffff81541680155f146107ea5750505f8080938193868391146107e1575b3390f11561033a575f8080809373ffffffffffffffffffffffffffffffffffffffff600554168282156107d8575bf11561033a575b62ed4e008254916101007fffffffffffffffffffffffffffffffffffffffffffffffffffffffffffff00ff8416178455116107a7575b5050335f52600460205260405f2054907fffffffffffffffffffffffffffffffffffffffffffffffffffffffffffffffff820191821161077a57600173ffffffffffffffffffffffffffffffffffffffff910154169260405192835260208301527fe87f3db45fe408fc478110dcd91e3ac83290c215d2a6f6da88ed87a155a8592660403393a460017f9b779b17422d0df92223018b32b4d1fa46e071723d6817e2486d003becc55f0055005b7f4e487b71000000000000000000000000000000000000000000000000000000005f52601160045260245ffd5b7fffffffffffffffffffffffffffffffffffffffffffffffffffffffff00ff00ff16630100010017905583806106cd565b506108fc610690565b506108fc610662565b610814919250936108329473ffffffffffffffffffffffffffffffffffffffff6005541690612464565b73ffffffffffffffffffffffffffffffffffffffff33915416612464565b610697565b935073ffffffffffffffffffffffffffffffffffffffff6001840154168481155f146108885790505f811561087f575b5f80809381933390f1610697576040513d5f823e3d90fd5b506108fc610867565b610832913390612464565b3461032e575f7ffffffffffffffffffffffffffffffffffffffffffffffffffffffffffffffffc36011261032e576020600154604051908152f35b3461032e575f7ffffffffffffffffffffffffffffffffffffffffffffffffffffffffffffffffc36011261032e57602073ffffffffffffffffffffffffffffffffffffffff7f9016d09d72d40fdae2fd8ceac6b6234c7706214fd39c1cd1e609a0528c1993005416604051908152f35b3461032e5760607ffffffffffffffffffffffffffffffffffffffffffffffffffffffffffffffffc36011261032e57610975611c96565b60243560443591600483101561032e5773ffffffffffffffffffffffffffffffffffffffff906109a36123ed565b6109ae831515611d93565b16916109bc823033866126d9565b335f526004602052610a1160405f20604051906109d882611df8565b3382528560208301528460408301524260608301526109fa8460808401611e8e565b5f60a08301525f60c08301525f60e0830152611e9a565b335f52600460205260405f2054907fffffffffffffffffffffffffffffffffffffffffffffffffffffffffffffffff820191821161077a57610a5290611c21565b5460405192835260208301527fc70e72afb083ce5c70c0e0b97bc888f96d934369091fcfaf7daa278b57811ad260403393a460017f9b779b17422d0df92223018b32b4d1fa46e071723d6817e2486d003becc55f0055005b3461032e5760207ffffffffffffffffffffffffffffffffffffffffffffffffffffffffffffffffc36011261032e5773ffffffffffffffffffffffffffffffffffffffff610af6611c96565b165f52600460205260405f2080549067ffffffffffffffff8211610cb25760208260051b0191610b296040519384611e4d565b8083526020830180925f5260205f205f915b838310610c0a578486604051918291602083019060208452518091526040830191905f5b818110610b6d575050500390f35b91935091602061010060019260e0875173ffffffffffffffffffffffffffffffffffffffff815116835273ffffffffffffffffffffffffffffffffffffffff8582015116858401526040810151604084015260608101516060840152610bdb60808201516080850190611cff565b60a0810151151560a084015260c0810151151560c08401520151151560e0820152019401910191849392610b5f565b60056020600192604051610c1d81611df8565b73ffffffffffffffffffffffffffffffffffffffff865416815273ffffffffffffffffffffffffffffffffffffffff858701541683820152600286015460408201526003860154606082015260ff6004870154610c7f82821660808501611e8e565b818160081c16151560a0840152818160101c16151560c084015260181c16151560e0820152815201920192019190610b3b565b7f4e487b71000000000000000000000000000000000000000000000000000000005f52604160045260245ffd5b3461032e5760207ffffffffffffffffffffffffffffffffffffffffffffffffffffffffffffffffc36011261032e57600435610d196124cd565b60648111610d51576020817f555684d4aa886a7a143874700e7ab092dd37d361aebdff312523ee21ad367ec7925f55604051908152a1005b60646040517f08c379a000000000000000000000000000000000000000000000000000000000815260206004820152601a60248201527f50656e616c74792063616e6e6f742065786365656420313030250000000000006044820152fd5b3461032e575f7ffffffffffffffffffffffffffffffffffffffffffffffffffffffffffffffffc36011261032e57610de56124cd565b5f73ffffffffffffffffffffffffffffffffffffffff7f9016d09d72d40fdae2fd8ceac6b6234c7706214fd39c1cd1e609a0528c199300547fffffffffffffffffffffffff000000000000000000000000000000000000000081167f9016d09d72d40fdae2fd8ceac6b6234c7706214fd39c1cd1e609a0528c19930055167f8be0079c531659141344cd1fd0a4f28419497f9722a3daafe3b4186f6b6457e08280a3005b3461032e57610ef86020610ea8610e9f36611d0c565b91939293612546565b9073ffffffffffffffffffffffffffffffffffffffff60025416906040518095819482937f20487ded000000000000000000000000000000000000000000000000000000008452600484016121bd565b03915afa801561033a575f90610f14575b602090604051908152f35b506020813d602011610f3f575b81610f2e60209383611e4d565b8101031261032e5760209051610f09565b3d9150610f21565b3461032e5760207ffffffffffffffffffffffffffffffffffffffffffffffffffffffffffffffffc36011261032e57600435610f816124cd565b60648111610fba576020817f5e1cededa0c61bd9aa4b63b9ac38db6df2131a3d7da56b56d1348b77e69aee1f92600155604051908152a1005b60646040517f08c379a000000000000000000000000000000000000000000000000000000000815260206004820152601860248201527f426f6e75732063616e6e6f7420657863656564203130302500000000000000006044820152fd5b3461032e575f7ffffffffffffffffffffffffffffffffffffffffffffffffffffffffffffffffc36011261032e57602073ffffffffffffffffffffffffffffffffffffffff60055416604051908152f35b3461032e5760407ffffffffffffffffffffffffffffffffffffffffffffffffffffffffffffffffc36011261032e576110a0611c96565b73ffffffffffffffffffffffffffffffffffffffff60243591165f52600460205260405f20805482101561032e57610100916110db91611cb9565b5060ff73ffffffffffffffffffffffffffffffffffffffff8254169173ffffffffffffffffffffffffffffffffffffffff600182015416906002810154600460038301549201549260405195865260208601526040850152606084015261114760808401838316611cff565b818160081c16151560a0840152818160101c16151560c084015260181c16151560e0820152f35b3461032e5760407ffffffffffffffffffffffffffffffffffffffffffffffffffffffffffffffffc36011261032e576111a5611c96565b60243573ffffffffffffffffffffffffffffffffffffffff811680910361032e577ff0c57e16840df040f15088dc2f81fe391c3923bec73e23a9662efc9c229c6a005460ff8160401c16159267ffffffffffffffff8216801590816114e2575b60011490816114d8575b1590816114cf575b506114a757818460017fffffffffffffffffffffffffffffffffffffffffffffffff000000000000000073ffffffffffffffffffffffffffffffffffffffff9516177ff0c57e16840df040f15088dc2f81fe391c3923bec73e23a9662efc9c229c6a0055611452575b506112896127c7565b6112916127c7565b61129a33612300565b6112a26127c7565b6112aa6127c7565b60017f9b779b17422d0df92223018b32b4d1fa46e071723d6817e2486d003becc55f0081905560058054929093167fffffffffffffffffffffffff00000000000000000000000000000000000000009283161790925560028054909116929092178255600a5f9081559190556003602081905262278d007f3617319a054d772f909f7c479a2cebe5066e836a939412e32403c99029b92eff5562ed4e007fa15bc60c955c405d20d9149c709e2460f1c2d9a497496a7f46004d1772c3054c556301e133807fc3a24b0501bd2c13a7e57f2db4369ec4c223447539fc0724a9d55ac4a06ebd4d5590526303c267007fcbc4e5fb02c3d1de23a9f1e014b4d2ee5aeaea9505df5e855c9210bf472495af556113bf57005b7fffffffffffffffffffffffffffffffffffffffffffffff00ffffffffffffffff7ff0c57e16840df040f15088dc2f81fe391c3923bec73e23a9662efc9c229c6a0054167ff0c57e16840df040f15088dc2f81fe391c3923bec73e23a9662efc9c229c6a00557fc7f505b2f371ae2175ee4913f4499e1f2633a7b5936321eed1cdaeb6115181d2602060405160018152a1005b7fffffffffffffffffffffffffffffffffffffffffffffff0000000000000000001668010000000000000001177ff0c57e16840df040f15088dc2f81fe391c3923bec73e23a9662efc9c229c6a005584611280565b7ff92ee8a9000000000000000000000000000000000000000000000000000000005f5260045ffd5b90501585611217565b303b15915061120f565b859150611205565b3461032e5760407ffffffffffffffffffffffffffffffffffffffffffffffffffffffffffffffffc36011261032e5760043567ffffffffffffffff811161032e57611539903690600401611c65565b60243567ffffffffffffffff811161032e57611559903690600401611c65565b90916115636124cd565b61156b6123ed565b8181036118265792905f905b8482106115a45760017f9b779b17422d0df92223018b32b4d1fa46e071723d6817e2486d003becc55f0055005b6115af8286856120a2565b359473ffffffffffffffffffffffffffffffffffffffff86169384870361032e575f5b6115dd8585896120b2565b9050811015611815576115fb816115f587878b6120b2565b906120a2565b3590865f52600460205261161460405f2054831061201d565b865f5260046020526116298260405f20611cb9565b50600481019261164b60ff8554611645828260081c1615612115565b16611c21565b549061165b826003850154612095565b42106117b7576001600284015493018a8d73ffffffffffffffffffffffffffffffffffffffff83541680155f146117655750505f808087819482821561175c575bf11561033a57604073ffffffffffffffffffffffffffffffffffffffff7fe87f3db45fe408fc478110dcd91e3ac83290c215d2a6f6da88ed87a155a859269260019862ed4e008f975b101561172b575b6101007fffffffffffffffffffffffffffffffffffffffffffffffffffffffffffff00ff82541617905554169481519081525f6020820152a4016115d2565b63010000007fffffffffffffffffffffffffffffffffffffffffffffffffffffffff00ffffff8254161781556116ec565b506108fc61169c565b9260019862ed4e00604094976117b28a73ffffffffffffffffffffffffffffffffffffffff967fe87f3db45fe408fc478110dcd91e3ac83290c215d2a6f6da88ed87a155a8592699612464565b6116e5565b60646040517f08c379a000000000000000000000000000000000000000000000000000000000815260206004820152601160248201527f5374616b65206e6f74206d6174757265640000000000000000000000000000006044820152fd5b509095509250600190910190611577565b60646040517f08c379a000000000000000000000000000000000000000000000000000000000815260206004820152601860248201527f4d69736d61746368656420696e707574206c656e6774687300000000000000006044820152fd5b3461032e575f7ffffffffffffffffffffffffffffffffffffffffffffffffffffffffffffffffc36011261032e5760205f54604051908152f35b3461032e5760207ffffffffffffffffffffffffffffffffffffffffffffffffffffffffffffffffc36011261032e57600435600481101561032e57611904602091611c21565b54604051908152f35b3461032e5760207ffffffffffffffffffffffffffffffffffffffffffffffffffffffffffffffffc36011261032e5761194a6004356105a66123ed565b50600481019060ff825460181c1615611aa157600160028201549161197d6064611975845486612082565b048094612095565b50019173ffffffffffffffffffffffffffffffffffffffff8354168281155f14611a915790505f8115611a88575b5f80809381933390f11561033a575b620100007fffffffffffffffffffffffffffffffffffffffffffffffffffffffffff00ffff825416179055335f52600460205260405f2054917fffffffffffffffffffffffffffffffffffffffffffffffffffffffffffffffff830192831161077a5773ffffffffffffffffffffffffffffffffffffffff905416916040519182527f77b6f2c009ba87239ec9aeb37b2c4b4f4bc1a3132a060aa74a6ae35b25b88d7a60203393a460017f9b779b17422d0df92223018b32b4d1fa46e071723d6817e2486d003becc55f0055005b506108fc6119ab565b611a9c913390612464565b6119ba565b60646040517f08c379a000000000000000000000000000000000000000000000000000000000815260206004820152601c60248201527f4e6f7420616c6c6f77656420746f20636c61696d2072657761726473000000006044820152fd5b60207ffffffffffffffffffffffffffffffffffffffffffffffffffffffffffffffffc36011261032e57600435600481101561032e57611b3d6123ed565b611b48341515611d93565b335f526004602052611b8660405f2060405190611b6482611df8565b3382525f60208301523460408301524260608301526109fa8460808401611e8e565b335f52600460205260405f20547fffffffffffffffffffffffffffffffffffffffffffffffffffffffffffffffff810190811161077a57611bc75f92611c21565b54906040519134835260208301527fc70e72afb083ce5c70c0e0b97bc888f96d934369091fcfaf7daa278b57811ad260403393a460017f9b779b17422d0df92223018b32b4d1fa46e071723d6817e2486d003becc55f0055005b6004811015611c38575f52600360205260405f2090565b7f4e487b71000000000000000000000000000000000000000000000000000000005f52602160045260245ffd5b9181601f8401121561032e5782359167ffffffffffffffff831161032e576020808501948460051b01011161032e57565b6004359073ffffffffffffffffffffffffffffffffffffffff8216820361032e57565b8054821015611cd2575f52600560205f20910201905f90565b7f4e487b71000000000000000000000000000000000000000000000000000000005f52603260045260245ffd5b906004821015611c385752565b7ffffffffffffffffffffffffffffffffffffffffffffffffffffffffffffffffc608091011261032e5760043567ffffffffffffffff8116810361032e579060243573ffffffffffffffffffffffffffffffffffffffff8116810361032e579060443573ffffffffffffffffffffffffffffffffffffffff8116810361032e579060643590565b15611d9a57565b60646040517f08c379a000000000000000000000000000000000000000000000000000000000815260206004820152602060248201527f416d6f756e74206d7573742062652067726561746572207468616e207a65726f6044820152fd5b610100810190811067ffffffffffffffff821117610cb257604052565b60a0810190811067ffffffffffffffff821117610cb257604052565b6040810190811067ffffffffffffffff821117610cb257604052565b90601f7fffffffffffffffffffffffffffffffffffffffffffffffffffffffffffffffe0910116810190811067ffffffffffffffff821117610cb257604052565b6004821015611c385752565b805468010000000000000000811015610cb257611ebc91600182018155611cb9565b611ff15760049073ffffffffffffffffffffffffffffffffffffffff80845116167fffffffffffffffffffffffff000000000000000000000000000000000000000082541617815573ffffffffffffffffffffffffffffffffffffffff60208401511673ffffffffffffffffffffffffffffffffffffffff6001830191167fffffffffffffffffffffffff0000000000000000000000000000000000000000825416179055604083015160028201556060830151600382015501906080810151906004821015611c3857825460a082015160c083015160e093909301517fffffffffffffffffffffffffffffffffffffffffffffffffffffffff0000000090921660ff9094169390931792151560081b61ff00169290921790151560101b62ff0000161790151560181b63ff00000016179055565b7f4e487b71000000000000000000000000000000000000000000000000000000005f525f60045260245ffd5b1561202457565b60646040517f08c379a000000000000000000000000000000000000000000000000000000000815260206004820152601360248201527f496e76616c6964207374616b6520696e646578000000000000000000000000006044820152fd5b8181029291811591840414171561077a57565b9190820180921161077a57565b9190811015611cd25760051b0190565b9190811015611cd25760051b810135907fffffffffffffffffffffffffffffffffffffffffffffffffffffffffffffffe18136030182121561032e57019081359167ffffffffffffffff831161032e576020018260051b3603811361032e579190565b1561211c57565b60646040517f08c379a000000000000000000000000000000000000000000000000000000000815260206004820152601060248201527f416c726561647920756e7374616b6564000000000000000000000000000000006044820152fd5b907fffffffffffffffffffffffffffffffffffffffffffffffffffffffffffffffe0601f602080948051918291828752018686015e5f8582860101520116010190565b9067ffffffffffffffff90939293168152604060208201526122226121ee845160a0604085015260e084019061217a565b60208501517fffffffffffffffffffffffffffffffffffffffffffffffffffffffffffffffc084830301606085015261217a565b906040840151917fffffffffffffffffffffffffffffffffffffffffffffffffffffffffffffffc0828203016080830152602080845192838152019301905f5b8181106122c85750505060808473ffffffffffffffffffffffffffffffffffffffff60606122c5969701511660a084015201519060c07fffffffffffffffffffffffffffffffffffffffffffffffffffffffffffffffc08285030191015261217a565b90565b8251805173ffffffffffffffffffffffffffffffffffffffff1686526020908101518187015260409095019490920191600101612262565b73ffffffffffffffffffffffffffffffffffffffff1680156123c15773ffffffffffffffffffffffffffffffffffffffff7f9016d09d72d40fdae2fd8ceac6b6234c7706214fd39c1cd1e609a0528c19930054827fffffffffffffffffffffffff00000000000000000000000000000000000000008216177f9016d09d72d40fdae2fd8ceac6b6234c7706214fd39c1cd1e609a0528c19930055167f8be0079c531659141344cd1fd0a4f28419497f9722a3daafe3b4186f6b6457e05f80a3565b7f1e4fbdf7000000000000000000000000000000000000000000000000000000005f525f60045260245ffd5b60027f9b779b17422d0df92223018b32b4d1fa46e071723d6817e2486d003becc55f00541461243c5760027f9b779b17422d0df92223018b32b4d1fa46e071723d6817e2486d003becc55f0055565b7f3ee5aeb5000000000000000000000000000000000000000000000000000000005f5260045ffd5b6040517fa9059cbb00000000000000000000000000000000000000000000000000000000602082015273ffffffffffffffffffffffffffffffffffffffff9290921660248301526044808301939093529181526124cb916124c6606483611e4d565b612740565b565b73ffffffffffffffffffffffffffffffffffffffff7f9016d09d72d40fdae2fd8ceac6b6234c7706214fd39c1cd1e609a0528c1993005416330361250d57565b7f118cdaa7000000000000000000000000000000000000000000000000000000005f523360045260245ffd5b805115611cd25760200190565b916060608060405161255781611e15565b8281528260208201528260408201525f83820152015260409182519161257d8484611e4d565b600183527fffffffffffffffffffffffffffffffffffffffffffffffffffffffffffffffe084015f5b8181106126b757505073ffffffffffffffffffffffffffffffffffffffff8451926125d084611e31565b16825260208201526125e182612539565b526125eb81612539565b5073ffffffffffffffffffffffffffffffffffffffff825193166020840152602083526126188284611e4d565b81519161262483611e31565b5f835260208301600181528151937f181dcf10000000000000000000000000000000000000000000000000000000006020860152516024850152511515604484015260448352612675606484611e4d565b80519361268185611e15565b845280516020810181811067ffffffffffffffff821117610cb25782525f815260208501528301525f6060830152608082015290565b60209086516126c581611e31565b5f81525f83820152828288010152016125a6565b90919273ffffffffffffffffffffffffffffffffffffffff6124cb9481604051957f23b872dd0000000000000000000000000000000000000000000000000000000060208801521660248601521660448401526064830152606482526124c6608483611e4d565b905f602091828151910182855af11561033a575f513d6127be575073ffffffffffffffffffffffffffffffffffffffff81163b155b61277c5750565b73ffffffffffffffffffffffffffffffffffffffff907f5274afe7000000000000000000000000000000000000000000000000000000005f521660045260245ffd5b60011415612775565b60ff7ff0c57e16840df040f15088dc2f81fe391c3923bec73e23a9662efc9c229c6a005460401c16156127f657565b7fd7e6bcf8000000000000000000000000000000000000000000000000000000005f5260045ffdfea2646970667358221220227361155b482efc588123cb7b0d2b922f7538c7ca2091fa7348f59aee0a115464736f6c634300081a0033",
    "linkReferences": {}
  },
  "methodIdentifiers": {
    "bonusPercent()": "becf3add",
    "claimRewards(uint256)": "0962ef79",
    "durationPeriods(uint8)": "0bbeee09",
    "estimateFeeForCrossChain(uint64,address,address,uint256)": "671aaabd",
    "getUserStakes(address)": "842e2981",
    "initialize(address,address)": "485cc955",
    "owner()": "8da5cb5b",
    "penaltyPercent()": "161ba46a",
    "processMaturedStakes(address[],uint256[][])": "2cac0653",
    "renounceOwnership()": "715018a6",
    "setBonusPercent(uint256)": "62bd689c",
    "setPenaltyPercent(uint256)": "71c263b2",
    "setTreasury(address)": "f0f44260",
    "stakeERC20(address,uint256,uint8)": "8a8f9b53",
    "stakeETH(uint8)": "05aafc7f",
    "stakes(address,uint256)": "584b62a1",
    "transferOwnership(address)": "f2fde38b",
    "transferTokenCrossChain(uint64,address,address,uint256)": "f3401e5c",
    "treasury()": "61d027b3",
    "unstakeManually(uint256)": "ca3bfacf"
  },
  "id": 39
}