{
  "abi": [
    {
      "type": "receive",
      "stateMutability": "payable"
    },
    {
      "type": "function",
      "name": "bonusPercent",
      "inputs": [],
      "outputs": [
        {
          "name": "",
          "type": "uint256",
          "internalType": "uint256"
        }
      ],
      "stateMutability": "view"
    },
    {
      "type": "function",
      "name": "claimRewards",
      "inputs": [
        {
          "name": "_index",
          "type": "uint256",
          "internalType": "uint256"
        }
      ],
      "outputs": [],
      "stateMutability": "nonpayable"
    },
    {
      "type": "function",
      "name": "durationPeriods",
      "inputs": [
        {
          "name": "",
          "type": "uint8",
          "internalType": "enum StakingBridge.StakingDuration"
        }
      ],
      "outputs": [
        {
          "name": "",
          "type": "uint256",
          "internalType": "uint256"
        }
      ],
      "stateMutability": "view"
    },
    {
      "type": "function",
      "name": "estimateFeeForCrossChain",
      "inputs": [
        {
          "name": "_destinationChainSelector",
          "type": "uint64",
          "internalType": "uint64"
        },
        {
          "name": "_receiver",
          "type": "address",
          "internalType": "address"
        },
        {
          "name": "_token",
          "type": "address",
          "internalType": "address"
        },
        {
          "name": "_amount",
          "type": "uint256",
          "internalType": "uint256"
        }
      ],
      "outputs": [
        {
          "name": "",
          "type": "uint256",
          "internalType": "uint256"
        }
      ],
      "stateMutability": "view"
    },
    {
      "type": "function",
      "name": "getUserStakes",
      "inputs": [
        {
          "name": "_user",
          "type": "address",
          "internalType": "address"
        }
      ],
      "outputs": [
        {
          "name": "",
          "type": "tuple[]",
          "internalType": "struct StakingBridge.Stake[]",
          "components": [
            {
              "name": "user",
              "type": "address",
              "internalType": "address"
            },
            {
              "name": "token",
              "type": "address",
              "internalType": "address"
            },
            {
              "name": "amount",
              "type": "uint256",
              "internalType": "uint256"
            },
            {
              "name": "startTime",
              "type": "uint256",
              "internalType": "uint256"
            },
            {
              "name": "duration",
              "type": "uint8",
              "internalType": "enum StakingBridge.StakingDuration"
            },
            {
              "name": "claimed",
              "type": "bool",
              "internalType": "bool"
            },
            {
              "name": "rewardsClaimed",
              "type": "bool",
              "internalType": "bool"
            },
            {
              "name": "allowedToClaimRewards",
              "type": "bool",
              "internalType": "bool"
            }
          ]
        }
      ],
      "stateMutability": "view"
    },
    {
      "type": "function",
      "name": "initialize",
      "inputs": [
        {
          "name": "_treasury",
          "type": "address",
          "internalType": "address"
        },
        {
          "name": "_router",
          "type": "address",
          "internalType": "address"
        }
      ],
      "outputs": [],
      "stateMutability": "nonpayable"
    },
    {
      "type": "function",
      "name": "owner",
      "inputs": [],
      "outputs": [
        {
          "name": "",
          "type": "address",
          "internalType": "address"
        }
      ],
      "stateMutability": "view"
    },
    {
      "type": "function",
      "name": "penaltyPercent",
      "inputs": [],
      "outputs": [
        {
          "name": "",
          "type": "uint256",
          "internalType": "uint256"
        }
      ],
      "stateMutability": "view"
    },
    {
      "type": "function",
      "name": "processMaturedStakes",
      "inputs": [
        {
          "name": "users",
          "type": "address[]",
          "internalType": "address[]"
        },
        {
          "name": "stakeIndexes",
          "type": "uint256[][]",
          "internalType": "uint256[][]"
        }
      ],
      "outputs": [],
      "stateMutability": "nonpayable"
    },
    {
      "type": "function",
      "name": "renounceOwnership",
      "inputs": [],
      "outputs": [],
      "stateMutability": "nonpayable"
    },
    {
      "type": "function",
      "name": "setBonusPercent",
      "inputs": [
        {
          "name": "_newPercent",
          "type": "uint256",
          "internalType": "uint256"
        }
      ],
      "outputs": [],
      "stateMutability": "nonpayable"
    },
    {
      "type": "function",
      "name": "setPenaltyPercent",
      "inputs": [
        {
          "name": "_newPercent",
          "type": "uint256",
          "internalType": "uint256"
        }
      ],
      "outputs": [],
      "stateMutability": "nonpayable"
    },
    {
      "type": "function",
      "name": "setTreasury",
      "inputs": [
        {
          "name": "_newTreasury",
          "type": "address",
          "internalType": "address"
        }
      ],
      "outputs": [],
      "stateMutability": "nonpayable"
    },
    {
      "type": "function",
      "name": "stakeERC20",
      "inputs": [
        {
          "name": "_token",
          "type": "address",
          "internalType": "address"
        },
        {
          "name": "_amount",
          "type": "uint256",
          "internalType": "uint256"
        },
        {
          "name": "_duration",
          "type": "uint8",
          "internalType": "enum StakingBridge.StakingDuration"
        }
      ],
      "outputs": [],
      "stateMutability": "nonpayable"
    },
    {
      "type": "function",
      "name": "stakeETH",
      "inputs": [
        {
          "name": "_duration",
          "type": "uint8",
          "internalType": "enum StakingBridge.StakingDuration"
        }
      ],
      "outputs": [],
      "stateMutability": "payable"
    },
    {
      "type": "function",
      "name": "stakes",
      "inputs": [
        {
          "name": "",
          "type": "address",
          "internalType": "address"
        },
        {
          "name": "",
          "type": "uint256",
          "internalType": "uint256"
        }
      ],
      "outputs": [
        {
          "name": "user",
          "type": "address",
          "internalType": "address"
        },
        {
          "name": "token",
          "type": "address",
          "internalType": "address"
        },
        {
          "name": "amount",
          "type": "uint256",
          "internalType": "uint256"
        },
        {
          "name": "startTime",
          "type": "uint256",
          "internalType": "uint256"
        },
        {
          "name": "duration",
          "type": "uint8",
          "internalType": "enum StakingBridge.StakingDuration"
        },
        {
          "name": "claimed",
          "type": "bool",
          "internalType": "bool"
        },
        {
          "name": "rewardsClaimed",
          "type": "bool",
          "internalType": "bool"
        },
        {
          "name": "allowedToClaimRewards",
          "type": "bool",
          "internalType": "bool"
        }
      ],
      "stateMutability": "view"
    },
    {
      "type": "function",
      "name": "transferOwnership",
      "inputs": [
        {
          "name": "newOwner",
          "type": "address",
          "internalType": "address"
        }
      ],
      "outputs": [],
      "stateMutability": "nonpayable"
    },
    {
      "type": "function",
      "name": "transferTokenCrossChain",
      "inputs": [
        {
          "name": "_destinationChainSelector",
          "type": "uint64",
          "internalType": "uint64"
        },
        {
          "name": "_receiver",
          "type": "address",
          "internalType": "address"
        },
        {
          "name": "_token",
          "type": "address",
          "internalType": "address"
        },
        {
          "name": "_amount",
          "type": "uint256",
          "internalType": "uint256"
        }
      ],
      "outputs": [
        {
          "name": "messageId",
          "type": "bytes32",
          "internalType": "bytes32"
        }
      ],
      "stateMutability": "nonpayable"
    },
    {
      "type": "function",
      "name": "treasury",
      "inputs": [],
      "outputs": [
        {
          "name": "",
          "type": "address",
          "internalType": "address"
        }
      ],
      "stateMutability": "view"
    },
    {
      "type": "function",
      "name": "unstakeManually",
      "inputs": [
        {
          "name": "_index",
          "type": "uint256",
          "internalType": "uint256"
        }
      ],
      "outputs": [],
      "stateMutability": "nonpayable"
    },
    {
      "type": "event",
      "name": "BonusPercentUpdated",
      "inputs": [
        {
          "name": "newPercent",
          "type": "uint256",
          "indexed": false,
          "internalType": "uint256"
        }
      ],
      "anonymous": false
    },
    {
      "type": "event",
      "name": "ClaimedRewards",
      "inputs": [
        {
          "name": "user",
          "type": "address",
          "indexed": true,
          "internalType": "address"
        },
        {
          "name": "token",
          "type": "address",
          "indexed": true,
          "internalType": "address"
        },
        {
          "name": "amount",
          "type": "uint256",
          "indexed": false,
          "internalType": "uint256"
        }
      ],
      "anonymous": false
    },
    {
      "type": "event",
      "name": "Initialized",
      "inputs": [
        {
          "name": "version",
          "type": "uint64",
          "indexed": false,
          "internalType": "uint64"
        }
      ],
      "anonymous": false
    },
    {
      "type": "event",
      "name": "OwnershipTransferred",
      "inputs": [
        {
          "name": "previousOwner",
          "type": "address",
          "indexed": true,
          "internalType": "address"
        },
        {
          "name": "newOwner",
          "type": "address",
          "indexed": true,
          "internalType": "address"
        }
      ],
      "anonymous": false
    },
    {
      "type": "event",
      "name": "PenaltyPercentUpdated",
      "inputs": [
        {
          "name": "newPercent",
          "type": "uint256",
          "indexed": false,
          "internalType": "uint256"
        }
      ],
      "anonymous": false
    },
    {
      "type": "event",
      "name": "Staked",
      "inputs": [
        {
          "name": "user",
          "type": "address",
          "indexed": true,
          "internalType": "address"
        },
        {
          "name": "token",
          "type": "address",
          "indexed": true,
          "internalType": "address"
        },
        {
          "name": "amount",
          "type": "uint256",
          "indexed": false,
          "internalType": "uint256"
        },
        {
          "name": "duration",
          "type": "uint256",
          "indexed": false,
          "internalType": "uint256"
        }
      ],
      "anonymous": false
    },
    {
      "type": "event",
      "name": "TokensTransferredCrossChain",
      "inputs": [
        {
          "name": "messageId",
          "type": "bytes32",
          "indexed": false,
          "internalType": "bytes32"
        },
        {
          "name": "destinationChainSelector",
          "type": "uint64",
          "indexed": false,
          "internalType": "uint64"
        },
        {
          "name": "receiver",
          "type": "address",
          "indexed": false,
          "internalType": "address"
        },
        {
          "name": "token",
          "type": "address",
          "indexed": false,
          "internalType": "address"
        },
        {
          "name": "amount",
          "type": "uint256",
          "indexed": false,
          "internalType": "uint256"
        },
        {
          "name": "nativeToken",
          "type": "address",
          "indexed": false,
          "internalType": "address"
        },
        {
          "name": "nativeFee",
          "type": "uint256",
          "indexed": false,
          "internalType": "uint256"
        }
      ],
      "anonymous": false
    },
    {
      "type": "event",
      "name": "TreasuryUpdated",
      "inputs": [
        {
          "name": "newTreasury",
          "type": "address",
          "indexed": true,
          "internalType": "address"
        }
      ],
      "anonymous": false
    },
    {
      "type": "event",
      "name": "Unstaked",
      "inputs": [
        {
          "name": "user",
          "type": "address",
          "indexed": true,
          "internalType": "address"
        },
        {
          "name": "token",
          "type": "address",
          "indexed": true,
          "internalType": "address"
        },
        {
          "name": "amount",
          "type": "uint256",
          "indexed": false,
          "internalType": "uint256"
        },
        {
          "name": "early",
          "type": "bool",
          "indexed": false,
          "internalType": "bool"
        }
      ],
      "anonymous": false
    },
    {
      "type": "error",
      "name": "InvalidInitialization",
      "inputs": []
    },
    {
      "type": "error",
      "name": "NotInitializing",
      "inputs": []
    },
    {
      "type": "error",
      "name": "OwnableInvalidOwner",
      "inputs": [
        {
          "name": "owner",
          "type": "address",
          "internalType": "address"
        }
      ]
    },
    {
      "type": "error",
      "name": "OwnableUnauthorizedAccount",
      "inputs": [
        {
          "name": "account",
          "type": "address",
          "internalType": "address"
        }
      ]
    },
    {
      "type": "error",
      "name": "ReentrancyGuardReentrantCall",
      "inputs": []
    },
    {
      "type": "error",
      "name": "SafeERC20FailedOperation",
      "inputs": [
        {
          "name": "token",
          "type": "address",
          "internalType": "address"
        }
      ]
    }
  ],
  "bytecode": {
    "object": "0x6080806040523460155761276d908161001a8239f35b5f80fdfe6080604052600436101561001a575b3615610018575f80fd5b005b5f3560e01c806305aafc7f14611aa55780630962ef79146118d75780630bbeee0914611888578063161ba46a1461184e5780632cac0653146114b6578063485cc9551461113a578063584b62a11461103557806361d027b314610fe457806362bd689c14610f13578063671aaabd14610e55578063715018a614610d7b57806371c263b214610cab578063842e298114610a765780638a8f9b53146108fc5780638da5cb5b1461088c578063becf3add14610851578063ca3bfacf1461053f578063f0f4426014610436578063f2fde38b146103ef5763f3401e5c0361000e57346103045761010836611c8c565b61011581838596956124c6565b9373ffffffffffffffffffffffffffffffffffffffff6002541690604051957f20487ded00000000000000000000000000000000000000000000000000000000875260208780610169848a6004840161213d565b0381865afa968715610310575f976103bb575b5047871161035d576040517f095ea7b300000000000000000000000000000000000000000000000000000000815273ffffffffffffffffffffffffffffffffffffffff93841660048201526024810185905294909216916020856044815f875af194851561031057879561031b575b5061024260209173ffffffffffffffffffffffffffffffffffffffff6002541690604051998a809481937f96f4e9f90000000000000000000000000000000000000000000000000000000083528c6004840161213d565b03925af1958615610310575f966102cd575b6020877fb751eb81945d749d72a16f2b22955eb80b58ba1568eff025a7aac2b8c8c7d99960e08989898973ffffffffffffffffffffffffffffffffffffffff8a67ffffffffffffffff604051968a8852168a870152166040850152606084015260808301525f60a083015260c0820152a1604051908152f35b9295509390926020833d602011610308575b816102ec60209383611dcd565b810103126103045791519490939192909160e0610254565b5f80fd5b3d91506102df565b6040513d5f823e3d90fd5b9094506020813d602011610355575b8161033760209383611dcd565b810103126103045751938415158503610304578694506102426101eb565b3d915061032a565b60646040517f08c379a000000000000000000000000000000000000000000000000000000000815260206004820152601260248201527f4e6f7420656e6f7567682062616c616e636500000000000000000000000000006044820152fd5b9096506020813d6020116103e7575b816103d760209383611dcd565b810103126103045751955f61017c565b3d91506103ca565b346103045760207ffffffffffffffffffffffffffffffffffffffffffffffffffffffffffffffffc36011261030457610018610429611c16565b61043161244d565b612280565b346103045760207ffffffffffffffffffffffffffffffffffffffffffffffffffffffffffffffffc3601126103045773ffffffffffffffffffffffffffffffffffffffff610482611c16565b61048a61244d565b1680156104e157807fffffffffffffffffffffffff000000000000000000000000000000000000000060055416176005557f7dae230f18360d76a040c81f050aa14eb9d6dc7901b20fc5d855e2a20fe814d15f80a2005b60646040517f08c379a000000000000000000000000000000000000000000000000000000000815260206004820152600f60248201527f496e76616c6964206164647265737300000000000000000000000000000000006044820152fd5b346103045760207ffffffffffffffffffffffffffffffffffffffffffffffffffffffffffffffffc360112610304576105a460043561057c61236d565b335f52600460205261059360405f20548210611f9d565b335f52600460205260405f20611c39565b50600481018054906105bc60ff8360081c1615612095565b6002830154926105cf60ff859416611ba1565b54906105df826003830154612015565b42109485156107c85760646105f55f5483612002565b049081810390811161079b5780956001840173ffffffffffffffffffffffffffffffffffffffff81541680155f1461075c5750505f808093819386839114610753575b3390f115610310575f8080809373ffffffffffffffffffffffffffffffffffffffff6005541682821561074a575bf1156103105773ffffffffffffffffffffffffffffffffffffffff926001925b62ed4e008254916101007fffffffffffffffffffffffffffffffffffffffffffffffffffffffffffff00ff841617845511610719575b50500154169160405191825260208201527f49d2b9b8dd088456bc56c5cd9b6c74fe63781fbc408ee1e07be167a6541e660160403392a360017f9b779b17422d0df92223018b32b4d1fa46e071723d6817e2486d003becc55f0055005b7fffffffffffffffffffffffffffffffffffffffffffffffffffffffff00ff00ff16630100010017905585806106bc565b506108fc610666565b506108fc610638565b61079692509061078c73ffffffffffffffffffffffffffffffffffffffff989560019895938a60055416906123e4565b87339154166123e4565b610686565b7f4e487b71000000000000000000000000000000000000000000000000000000005f52601160045260245ffd5b80945073ffffffffffffffffffffffffffffffffffffffff60018301541680155f1461082c57505f8115610823575b5f80809381933390f1156103105773ffffffffffffffffffffffffffffffffffffffff92600192610686565b506108fc6107f7565b9261079673ffffffffffffffffffffffffffffffffffffffff959260019533906123e4565b34610304575f7ffffffffffffffffffffffffffffffffffffffffffffffffffffffffffffffffc360112610304576020600154604051908152f35b34610304575f7ffffffffffffffffffffffffffffffffffffffffffffffffffffffffffffffffc36011261030457602073ffffffffffffffffffffffffffffffffffffffff7f9016d09d72d40fdae2fd8ceac6b6234c7706214fd39c1cd1e609a0528c1993005416604051908152f35b346103045760607ffffffffffffffffffffffffffffffffffffffffffffffffffffffffffffffffc36011261030457610933611c16565b6024356044359160048310156103045773ffffffffffffffffffffffffffffffffffffffff610a1e9161096461236d565b61096f841515611d13565b16926109c46040517f23b872dd000000000000000000000000000000000000000000000000000000006020820152336024820152306044820152846064820152606481526109be608482611dcd565b85612659565b335f526004602052610a1960405f20604051906109e082611d78565b338252866020830152856040830152426060830152610a028460808401611e0e565b5f60a08301525f60c08301525f60e0830152611e1a565b611ba1565b5460405191825260208201527f6c86f3fd5118b3aa8bb4f389a617046de0a3d3d477de1a1673d227f802f616dc60403392a360017f9b779b17422d0df92223018b32b4d1fa46e071723d6817e2486d003becc55f0055005b346103045760207ffffffffffffffffffffffffffffffffffffffffffffffffffffffffffffffffc3601126103045773ffffffffffffffffffffffffffffffffffffffff610ac2611c16565b165f52600460205260405f2080549067ffffffffffffffff8211610c7e5760208260051b0191610af56040519384611dcd565b8083526020830180925f5260205f205f915b838310610bd6578486604051918291602083019060208452518091526040830191905f5b818110610b39575050500390f35b91935091602061010060019260e0875173ffffffffffffffffffffffffffffffffffffffff815116835273ffffffffffffffffffffffffffffffffffffffff8582015116858401526040810151604084015260608101516060840152610ba760808201516080850190611c7f565b60a0810151151560a084015260c0810151151560c08401520151151560e0820152019401910191849392610b2b565b60056020600192604051610be981611d78565b73ffffffffffffffffffffffffffffffffffffffff865416815273ffffffffffffffffffffffffffffffffffffffff858701541683820152600286015460408201526003860154606082015260ff6004870154610c4b82821660808501611e0e565b818160081c16151560a0840152818160101c16151560c084015260181c16151560e0820152815201920192019190610b07565b7f4e487b71000000000000000000000000000000000000000000000000000000005f52604160045260245ffd5b346103045760207ffffffffffffffffffffffffffffffffffffffffffffffffffffffffffffffffc36011261030457600435610ce561244d565b60648111610d1d576020817f555684d4aa886a7a143874700e7ab092dd37d361aebdff312523ee21ad367ec7925f55604051908152a1005b60646040517f08c379a000000000000000000000000000000000000000000000000000000000815260206004820152601a60248201527f50656e616c74792063616e6e6f742065786365656420313030250000000000006044820152fd5b34610304575f7ffffffffffffffffffffffffffffffffffffffffffffffffffffffffffffffffc36011261030457610db161244d565b5f73ffffffffffffffffffffffffffffffffffffffff7f9016d09d72d40fdae2fd8ceac6b6234c7706214fd39c1cd1e609a0528c199300547fffffffffffffffffffffffff000000000000000000000000000000000000000081167f9016d09d72d40fdae2fd8ceac6b6234c7706214fd39c1cd1e609a0528c19930055167f8be0079c531659141344cd1fd0a4f28419497f9722a3daafe3b4186f6b6457e08280a3005b3461030457610ec46020610e74610e6b36611c8c565b919392936124c6565b9073ffffffffffffffffffffffffffffffffffffffff60025416906040518095819482937f20487ded0000000000000000000000000000000000000000000000000000000084526004840161213d565b03915afa8015610310575f90610ee0575b602090604051908152f35b506020813d602011610f0b575b81610efa60209383611dcd565b810103126103045760209051610ed5565b3d9150610eed565b346103045760207ffffffffffffffffffffffffffffffffffffffffffffffffffffffffffffffffc36011261030457600435610f4d61244d565b60648111610f86576020817f5e1cededa0c61bd9aa4b63b9ac38db6df2131a3d7da56b56d1348b77e69aee1f92600155604051908152a1005b60646040517f08c379a000000000000000000000000000000000000000000000000000000000815260206004820152601860248201527f426f6e75732063616e6e6f7420657863656564203130302500000000000000006044820152fd5b34610304575f7ffffffffffffffffffffffffffffffffffffffffffffffffffffffffffffffffc36011261030457602073ffffffffffffffffffffffffffffffffffffffff60055416604051908152f35b346103045760407ffffffffffffffffffffffffffffffffffffffffffffffffffffffffffffffffc3601126103045761106c611c16565b73ffffffffffffffffffffffffffffffffffffffff60243591165f52600460205260405f20805482101561030457610100916110a791611c39565b5060ff73ffffffffffffffffffffffffffffffffffffffff8254169173ffffffffffffffffffffffffffffffffffffffff600182015416906002810154600460038301549201549260405195865260208601526040850152606084015261111360808401838316611c7f565b818160081c16151560a0840152818160101c16151560c084015260181c16151560e0820152f35b346103045760407ffffffffffffffffffffffffffffffffffffffffffffffffffffffffffffffffc36011261030457611171611c16565b60243573ffffffffffffffffffffffffffffffffffffffff8116809103610304577ff0c57e16840df040f15088dc2f81fe391c3923bec73e23a9662efc9c229c6a005460ff8160401c16159267ffffffffffffffff8216801590816114ae575b60011490816114a4575b15908161149b575b5061147357818460017fffffffffffffffffffffffffffffffffffffffffffffffff000000000000000073ffffffffffffffffffffffffffffffffffffffff9516177ff0c57e16840df040f15088dc2f81fe391c3923bec73e23a9662efc9c229c6a005561141e575b506112556126e0565b61125d6126e0565b61126633612280565b61126e6126e0565b6112766126e0565b60017f9b779b17422d0df92223018b32b4d1fa46e071723d6817e2486d003becc55f0081905560058054929093167fffffffffffffffffffffffff00000000000000000000000000000000000000009283161790925560028054909116929092178255600a5f9081559190556003602081905262278d007f3617319a054d772f909f7c479a2cebe5066e836a939412e32403c99029b92eff5562ed4e007fa15bc60c955c405d20d9149c709e2460f1c2d9a497496a7f46004d1772c3054c556301e133807fc3a24b0501bd2c13a7e57f2db4369ec4c223447539fc0724a9d55ac4a06ebd4d5590526303c267007fcbc4e5fb02c3d1de23a9f1e014b4d2ee5aeaea9505df5e855c9210bf472495af5561138b57005b7fffffffffffffffffffffffffffffffffffffffffffffff00ffffffffffffffff7ff0c57e16840df040f15088dc2f81fe391c3923bec73e23a9662efc9c229c6a0054167ff0c57e16840df040f15088dc2f81fe391c3923bec73e23a9662efc9c229c6a00557fc7f505b2f371ae2175ee4913f4499e1f2633a7b5936321eed1cdaeb6115181d2602060405160018152a1005b7fffffffffffffffffffffffffffffffffffffffffffffff0000000000000000001668010000000000000001177ff0c57e16840df040f15088dc2f81fe391c3923bec73e23a9662efc9c229c6a00558461124c565b7ff92ee8a9000000000000000000000000000000000000000000000000000000005f5260045ffd5b905015856111e3565b303b1591506111db565b8591506111d1565b346103045760407ffffffffffffffffffffffffffffffffffffffffffffffffffffffffffffffffc3601126103045760043567ffffffffffffffff811161030457611505903690600401611be5565b60243567ffffffffffffffff811161030457611525903690600401611be5565b909161152f61244d565b61153761236d565b8181036117f05792905f905b8482106115705760017f9b779b17422d0df92223018b32b4d1fa46e071723d6817e2486d003becc55f0055005b61157b828685612022565b359473ffffffffffffffffffffffffffffffffffffffff861693848703610304575f5b6115a9858589612032565b90508110156117df576115f36115ca826115c488888c612032565b90612022565b35875f5260046020526115e260405f20548210611f9d565b875f52600460205260405f20611c39565b5090600482019161161660ff8454611610828260081c1615612095565b16611ba1565b54611625816003840154612015565b421061178157600160028301549201898c73ffffffffffffffffffffffffffffffffffffffff83541680155f1461172f5750505f8080868194828215611726575bf11561031057604073ffffffffffffffffffffffffffffffffffffffff7f49d2b9b8dd088456bc56c5cd9b6c74fe63781fbc408ee1e07be167a6541e66019260019762ed4e008e965b10156116f5575b6101007fffffffffffffffffffffffffffffffffffffffffffffffffffffffffffff00ff82541617905554169381519081525f6020820152a30161159e565b63010000007fffffffffffffffffffffffffffffffffffffffffffffffffffffffff00ffffff8254161781556116b6565b506108fc611666565b9260019762ed4e006040949661177c8973ffffffffffffffffffffffffffffffffffffffff967f49d2b9b8dd088456bc56c5cd9b6c74fe63781fbc408ee1e07be167a6541e6601996123e4565b6116af565b60646040517f08c379a000000000000000000000000000000000000000000000000000000000815260206004820152601160248201527f5374616b65206e6f74206d6174757265640000000000000000000000000000006044820152fd5b509095509250600190910190611543565b60646040517f08c379a000000000000000000000000000000000000000000000000000000000815260206004820152601860248201527f4d69736d61746368656420696e707574206c656e6774687300000000000000006044820152fd5b34610304575f7ffffffffffffffffffffffffffffffffffffffffffffffffffffffffffffffffc3601126103045760205f54604051908152f35b346103045760207ffffffffffffffffffffffffffffffffffffffffffffffffffffffffffffffffc360112610304576004356004811015610304576118ce602091611ba1565b54604051908152f35b346103045760207ffffffffffffffffffffffffffffffffffffffffffffffffffffffffffffffffc3601126103045761191460043561057c61236d565b506004810160ff815460181c1615611a47576001600283015492611946606461193e845487612002565b048095612015565b50018273ffffffffffffffffffffffffffffffffffffffff82541680155f14611a2057505f8115611a17575b5f80809381933390f1156103105773ffffffffffffffffffffffffffffffffffffffff915b620100007fffffffffffffffffffffffffffffffffffffffffffffffffffffffffff00ffff8254161790555416906040519081527f2ef606d064225d24c1514dc94907c134faee1237445c2f63f410cce0852b205460203392a360017f9b779b17422d0df92223018b32b4d1fa46e071723d6817e2486d003becc55f0055005b506108fc611972565b73ffffffffffffffffffffffffffffffffffffffff9391611a429133906123e4565b611997565b60646040517f08c379a000000000000000000000000000000000000000000000000000000000815260206004820152601c60248201527f4e6f7420616c6c6f77656420746f20636c61696d2072657761726473000000006044820152fd5b60207ffffffffffffffffffffffffffffffffffffffffffffffffffffffffffffffffc36011261030457600435600481101561030457611b485f91611ae861236d565b611af3341515611d13565b3383526004602052610a196040842060405190611b0f82611d78565b338252856020830152346040830152426060830152611b318460808401611e0e565b8560a08301528560c08301528560e0830152611e1a565b546040519034825260208201527f6c86f3fd5118b3aa8bb4f389a617046de0a3d3d477de1a1673d227f802f616dc60403392a360017f9b779b17422d0df92223018b32b4d1fa46e071723d6817e2486d003becc55f0055005b6004811015611bb8575f52600360205260405f2090565b7f4e487b71000000000000000000000000000000000000000000000000000000005f52602160045260245ffd5b9181601f840112156103045782359167ffffffffffffffff8311610304576020808501948460051b01011161030457565b6004359073ffffffffffffffffffffffffffffffffffffffff8216820361030457565b8054821015611c52575f52600560205f20910201905f90565b7f4e487b71000000000000000000000000000000000000000000000000000000005f52603260045260245ffd5b906004821015611bb85752565b7ffffffffffffffffffffffffffffffffffffffffffffffffffffffffffffffffc60809101126103045760043567ffffffffffffffff81168103610304579060243573ffffffffffffffffffffffffffffffffffffffff81168103610304579060443573ffffffffffffffffffffffffffffffffffffffff81168103610304579060643590565b15611d1a57565b60646040517f08c379a000000000000000000000000000000000000000000000000000000000815260206004820152602060248201527f416d6f756e74206d7573742062652067726561746572207468616e207a65726f6044820152fd5b610100810190811067ffffffffffffffff821117610c7e57604052565b60a0810190811067ffffffffffffffff821117610c7e57604052565b6040810190811067ffffffffffffffff821117610c7e57604052565b90601f7fffffffffffffffffffffffffffffffffffffffffffffffffffffffffffffffe0910116810190811067ffffffffffffffff821117610c7e57604052565b6004821015611bb85752565b805468010000000000000000811015610c7e57611e3c91600182018155611c39565b611f715760049073ffffffffffffffffffffffffffffffffffffffff80845116167fffffffffffffffffffffffff000000000000000000000000000000000000000082541617815573ffffffffffffffffffffffffffffffffffffffff60208401511673ffffffffffffffffffffffffffffffffffffffff6001830191167fffffffffffffffffffffffff0000000000000000000000000000000000000000825416179055604083015160028201556060830151600382015501906080810151906004821015611bb857825460a082015160c083015160e093909301517fffffffffffffffffffffffffffffffffffffffffffffffffffffffff0000000090921660ff9094169390931792151560081b61ff00169290921790151560101b62ff0000161790151560181b63ff00000016179055565b7f4e487b71000000000000000000000000000000000000000000000000000000005f525f60045260245ffd5b15611fa457565b60646040517f08c379a000000000000000000000000000000000000000000000000000000000815260206004820152601360248201527f496e76616c6964207374616b6520696e646578000000000000000000000000006044820152fd5b8181029291811591840414171561079b57565b9190820180921161079b57565b9190811015611c525760051b0190565b9190811015611c525760051b810135907fffffffffffffffffffffffffffffffffffffffffffffffffffffffffffffffe18136030182121561030457019081359167ffffffffffffffff8311610304576020018260051b36038113610304579190565b1561209c57565b60646040517f08c379a000000000000000000000000000000000000000000000000000000000815260206004820152601060248201527f416c726561647920756e7374616b6564000000000000000000000000000000006044820152fd5b907fffffffffffffffffffffffffffffffffffffffffffffffffffffffffffffffe0601f602080948051918291828752018686015e5f8582860101520116010190565b9067ffffffffffffffff90939293168152604060208201526121a261216e845160a0604085015260e08401906120fa565b60208501517fffffffffffffffffffffffffffffffffffffffffffffffffffffffffffffffc08483030160608501526120fa565b906040840151917fffffffffffffffffffffffffffffffffffffffffffffffffffffffffffffffc0828203016080830152602080845192838152019301905f5b8181106122485750505060808473ffffffffffffffffffffffffffffffffffffffff6060612245969701511660a084015201519060c07fffffffffffffffffffffffffffffffffffffffffffffffffffffffffffffffc0828503019101526120fa565b90565b8251805173ffffffffffffffffffffffffffffffffffffffff16865260209081015181870152604090950194909201916001016121e2565b73ffffffffffffffffffffffffffffffffffffffff1680156123415773ffffffffffffffffffffffffffffffffffffffff7f9016d09d72d40fdae2fd8ceac6b6234c7706214fd39c1cd1e609a0528c19930054827fffffffffffffffffffffffff00000000000000000000000000000000000000008216177f9016d09d72d40fdae2fd8ceac6b6234c7706214fd39c1cd1e609a0528c19930055167f8be0079c531659141344cd1fd0a4f28419497f9722a3daafe3b4186f6b6457e05f80a3565b7f1e4fbdf7000000000000000000000000000000000000000000000000000000005f525f60045260245ffd5b60027f9b779b17422d0df92223018b32b4d1fa46e071723d6817e2486d003becc55f0054146123bc5760027f9b779b17422d0df92223018b32b4d1fa46e071723d6817e2486d003becc55f0055565b7f3ee5aeb5000000000000000000000000000000000000000000000000000000005f5260045ffd5b6040517fa9059cbb00000000000000000000000000000000000000000000000000000000602082015273ffffffffffffffffffffffffffffffffffffffff92909216602483015260448083019390935291815261244b91612446606483611dcd565b612659565b565b73ffffffffffffffffffffffffffffffffffffffff7f9016d09d72d40fdae2fd8ceac6b6234c7706214fd39c1cd1e609a0528c1993005416330361248d57565b7f118cdaa7000000000000000000000000000000000000000000000000000000005f523360045260245ffd5b805115611c525760200190565b91606060806040516124d781611d95565b8281528260208201528260408201525f8382015201526040918251916124fd8484611dcd565b600183527fffffffffffffffffffffffffffffffffffffffffffffffffffffffffffffffe084015f5b81811061263757505073ffffffffffffffffffffffffffffffffffffffff84519261255084611db1565b1682526020820152612561826124b9565b5261256b816124b9565b5073ffffffffffffffffffffffffffffffffffffffff825193166020840152602083526125988284611dcd565b8151916125a483611db1565b5f835260208301600181528151937f181dcf100000000000000000000000000000000000000000000000000000000060208601525160248501525115156044840152604483526125f5606484611dcd565b80519361260185611d95565b845280516020810181811067ffffffffffffffff821117610c7e5782525f815260208501528301525f6060830152608082015290565b602090865161264581611db1565b5f81525f8382015282828801015201612526565b905f602091828151910182855af115610310575f513d6126d7575073ffffffffffffffffffffffffffffffffffffffff81163b155b6126955750565b73ffffffffffffffffffffffffffffffffffffffff907f5274afe7000000000000000000000000000000000000000000000000000000005f521660045260245ffd5b6001141561268e565b60ff7ff0c57e16840df040f15088dc2f81fe391c3923bec73e23a9662efc9c229c6a005460401c161561270f57565b7fd7e6bcf8000000000000000000000000000000000000000000000000000000005f5260045ffdfea2646970667358221220e07b0d8840483b365f824e0593eb14242dd914da85ad1bf221523d0ca3b7940d64736f6c634300081a0033",
    "linkReferences": {}
  },
  "methodIdentifiers": {
    "bonusPercent()": "becf3add",
    "claimRewards(uint256)": "0962ef79",
    "durationPeriods(uint8)": "0bbeee09",
    "estimateFeeForCrossChain(uint64,address,address,uint256)": "671aaabd",
    "getUserStakes(address)": "842e2981",
    "initialize(address,address)": "485cc955",
    "owner()": "8da5cb5b",
    "penaltyPercent()": "161ba46a",
    "processMaturedStakes(address[],uint256[][])": "2cac0653",
    "renounceOwnership()": "715018a6",
    "setBonusPercent(uint256)": "62bd689c",
    "setPenaltyPercent(uint256)": "71c263b2",
    "setTreasury(address)": "f0f44260",
    "stakeERC20(address,uint256,uint8)": "8a8f9b53",
    "stakeETH(uint8)": "05aafc7f",
    "stakes(address,uint256)": "584b62a1",
    "transferOwnership(address)": "f2fde38b",
    "transferTokenCrossChain(uint64,address,address,uint256)": "f3401e5c",
    "treasury()": "61d027b3",
    "unstakeManually(uint256)": "ca3bfacf"
  },
  "id": 39
}